:020000040800F2
:1000000080B483B000AF786000E000BF7B685A1E08
:100010007A60002BF9D100BF00BF0C37BD4680BC11
:100020007047000080B483B000AF0346FB7100BF8F
:10003000064B1B6803F08003002BF9D0044AFB79C0
:10004000136000BF0C37BD4680BC70471C480040A1
:100050002848004080B582B000AF786006E07B6839
:100060005A1C7A601B781846FFF7DCFF7B681B7808
:10007000002BF4D100BF00BF0837BD4680BD000093
:1000800080B500AF0348FFF7E5FF0348FFF7B8FF6F
:1000900000BFF7E79C00000800127A0048656C6C0E
:0A00A0006F20776F726C640D0A0088
:0400AC00F8B500BFE4
:0400B000F8B500BFE0
:04000005080000816E
:00000001FF
